:040000006AEF7EF035
:10FCBE008D8200D08D921200010EC26E000EC16EAA
:10FCCE00910EC06E120000EE13F0090EEE6AE806F9
:10FCDE00FDE100013EEF7FF0016E8D8401C08CFFCF
:10FCEE005FEC7EF0210EE82EFED700F01200C282ED
:10FCFE00C2B284EF7EF086EF7EF07FEF7EF0C450CE
:10FD0E00036EC350016E03C002F01200026E8D949A
:10FD1E0002C08CFF5FEC7EF0060E016E300EE82EF8
:10FD2E00FED7012EFCD700D01200300E8DEC7EF0E7
:10FD3E00300E8DEC7EF0300E8DEC7EF0380E8DECAC
:10FD4E007EF0080E8DEC7EF0010E8DEC7EF0060E30
:10FD5E008DEC7EF00C0E8DEC7EF01200000E046E1B
:10FD6E00C3EF7EF004500224D96E000E0320DA6E2B
:10FD7E00DF5073EC7EF0042A04500224D96E000E7C
:10FD8E000320DA6EDF50D8A4CFEF7EF0D1EF7EF0F5
:10FD9E00B9EF7EF0120003500410D8B4D9EF7EF004
:10FDAE00DBEF7EF0FFEF7EF0010E056EE3EF7EF0EF
:10FDBE00D89003360436052A04AEE8EF7EF0EAEF5B
:10FDCE007EF0DFEF7EF00350015C04500258D8A0A5
:10FDDE00F3EF7EF0F5EF7EF0F9EF7EF00350015E6B
:10FDEE000450025AD89004320332052EEAEF7EF008
:10FDFE0001C001F002C002F01200000E0B6E000EE8
:10FE0E000A6E08500910D8B40FEF7FF011EF7FF093
:10FE1E0039EF7FF0010E0C6E19EF7FF0D890083697
:10FE2E0009360C2A09AE1EEF7FF020EF7FF015EF9A
:10FE3E007FF0D8900A360B360850065C09500758EA
:10FE4E00D8A02CEF7FF02EEF7FF033EF7FF008502D
:10FE5E00065E0950075A0A80D890093208320C2ED5
:10FE6E0020EF7FF00AC006F00BC007F01200700EF4
:10FE7E00D3120F0EC112070EB412000E926E000EA8
:10FE8E00956E000E966EAA0E896EF00E8C6E0F0E8B
:10FE9E008D6E9CEC7EF063EC7EF07EEC7EF001C00D
:10FEAE0013F002C014F013C00DF014C00EF0150EB6
:10FEBE000F6E000E106E7DEC7FF0150E026E000EB2
:10FECE00036EB5EC7EF0020E126E040E116EBA0EBB
:10FEDE00E82EFED7112EFCD7122EFAD700D0010E27
:10FEEE008DEC7EF054EF7FF000EF00F00DC006F0C9
:10FEFE000EC007F0270E096E100E086E04EC7FF090
:10FF0E000650300F0FC0D9FF10C0DAFFDF6E20EEA3
:10FF1E0001F00F50D9261050DA22270E046E100E63
:10FF2E00036E0DC001F00EC002F0D2EC7EF001C0E7
:10FF3E0006F002C007F0030E096EE80E086E04EC20
:10FF4E007FF00650300FDF6E20EE02F00F50D926F4
:10FF5E001050DA22030E046EE80E036E0DC001F08F
:10FF6E000EC002F0D2EC7EF001C006F002C007F027
:10FF7E00000E096E640E086E04EC7FF00650300F12
:10FF8E00DF6E20EE03F00F50D9261050DA22000E4D
:10FF9E00046E640E036E0DC001F00EC002F0D2ECC2
:10FFAE007EF001C006F002C007F0000E096E0A0EC8
:10FFBE00086E04EC7FF00650300FDF6E20EE04F07A
:10FFCE000F50D9261050DA220DC001F00EC002F0EB
:10FFDE00000E046E0A0E036ED2EC7EF00150300F4E
:10FFEE00DF6E20EE05F00F50D9261050DA22DF6AB0
:02FFFE001200EF
:020000040030CA
:08000000FF08191EFF8181FFBA
:00000001FF
