:0400000026EF7FF078
:10FE4C00000147EF7FF08D8200D08D921200016E81
:10FE5C008D8401C08CFF29EC7FF0210EE82EFED79B
:10FE6C0000F01200026E8D9402C08CFF29EC7FF022
:10FE7C00060E016E300EE82EFED7012EFCD700D0F8
:10FE8C001200700ED3120F0EC112070EB412000E18
:10FE9C00926E000E936E000E946E000E956E000E18
:10FEAC00966E000E896E000E8A6E000E8B6E000E22
:10FEBC008C6E000E8D6E380E38EC7FF0380E38ECF0
:10FECC007FF0380E38EC7FF0380E38EC7FF00C0EEB
:10FEDC0038EC7FF0010E38EC7FF0060E38EC7FF03A
:10FEEC00380E38EC7FF00E0E38EC7FF0060E38EC46
:10FEFC007FF0480E2DEC7FF0650E2DEC7FF06C0E34
:10FF0C002DEC7FF06C0E2DEC7FF06F0E2DEC7FF056
:10FF1C00200E2DEC7FF0570E2DEC7FF06F0E2DEC9C
:10FF2C007FF0720E2DEC7FF06C0E2DEC7FF0640EDA
:10FF3C002DEC7FF0210E2DEC7FF00B0E046E260EB7
:10FF4C00036E5E0EE82EFED7032EFCD7042EFAD7D6
:10FF5C00010E38EC7FF0430E2DEC7FF0790E2DEC7A
:10FF6C007FF0620E2DEC7FF0650E2DEC7FF0720EA3
:10FF7C002DEC7FF0700E2DEC7FF0750E2DEC7FF0DC
:10FF8C006E0E2DEC7FF06B0E2DEC7FF0C00E38EC6E
:10FF9C007FF0500E2DEC7FF0680E2DEC7FF0610E93
:10FFAC002DEC7FF06E0E2DEC7FF0740E2DEC7FF0AF
:10FFBC006F0E2DEC7FF06D0E2DEC7FF0200E2DECE6
:10FFCC007FF04C0E2DEC7FF0690E2DEC7FF0620E65
:10FFDC002DEC7FF0650E2DEC7FF0720E2DEC7FF08A
:10FFEC00740E2DEC7FF0790E2DEC7FF0FCEF7FF092
:04FFFC0000EF00F022
:020000040030CA
:08000000FF08191EFF8181FFBA
:00000001FF
