:040000004DEF7EF052
:10FC82008D8200D08D921200010ECA6E0B0ECB6EC9
:10FC92000C0EBD6ECA84120000EE13F0070EEE6A5F
:10FCA200E806FDE1000112EF7FF0016E8D8401C0D4
:10FCB2008CFF41EC7EF0210EE82EFED700F0120000
:10FCC200026E8D9402C08CFF41EC7EF0060E016E36
:10FCD200300EE82EFED7012EFCD700D01200300ED7
:10FCE20061EC7EF0300E61EC7EF0300E61EC7EF065
:10FCF200380E61EC7EF0080E61EC7EF0010E61ECD4
:10FD02007EF0060E61EC7EF00C0E61EC7EF01200CD
:10FD1200000E046E97EF7EF004500224D96E000E9E
:10FD22000320DA6EDF5056EC7EF0042A04500224DF
:10FD3200D96E000E0320DA6EDF50D8A4A3EF7EF056
:10FD4200A5EF7EF08DEF7EF0120003500410D8B4C0
:10FD5200ADEF7EF0AFEF7EF0D3EF7EF0010E056ED9
:10FD6200B7EF7EF0D89003360436052A04AEBCEF16
:10FD72007EF0BEEF7EF0B3EF7EF00350015C0450E4
:10FD82000258D8A0C7EF7EF0C9EF7EF0CDEF7EF02B
:10FD92000350015E0450025AD89004320332052EF9
:10FDA200BEEF7EF001C001F002C002F01200000EB0
:10FDB2000B6E000E0A6E08500910D8B4E3EF7EF005
:10FDC200E5EF7EF00DEF7FF0010E0C6EEDEF7EF0B1
:10FDD200D890083609360C2A09AEF2EF7EF0F4EF1D
:10FDE2007EF0E9EF7EF0D8900A360B360850065CBA
:10FDF20009500758D8A000EF7FF002EF7FF007EF1D
:10FE02007FF00850065E0950075A0A80D8900932DE
:10FE120008320C2EF4EF7EF00AC006F00BC007F099
:10FE22001200700ED3120F0EC112070EB412936895
:10FE3200FB0E946E000E956E000E966E000E896E8D
:10FE4200000E8C6E000E8D6E70EC7EF045EC7EF036
:10FE5200320EBE6E81B230EF7FF032EF7FF043EFB1
:10FE62007FF0F10EBE6038EF7FF03AEF7FF03CEFAB
:10FE72007FF00A0EBE2681A241EF7FF043EF7FF0B2
:10FE82003CEF7FF081B048EF7FF04AEF7FF05BEF0D
:10FE92007FF0090EBE6450EF7FF052EF7FF054EF17
:10FEA2007FF00A0EBE5E81A059EF7FF05BEF7FF01C
:10FEB20054EF7FF0020E126E040E116EBA0EE82E8F
:10FEC200FED7112EFCD7122EFAD700D0010E61EC0C
:10FED2007EF0BECF0DF00E6A130E0F6E000E106E86
:10FEE2007DEC7FF0130E026E000E036E89EC7EF045
:10FEF2002BEF7FF000EF00F00DC006F00EC007F010
:10FF0200270E096E100E086ED8EC7EF00650300FE8
:10FF12000FC0D9FF10C0DAFFDF6E20EE01F00F50E4
:10FF2200D9261050DA22270E046E100E036E0DC071
:10FF320001F00EC002F0A6EC7EF001C006F002C095
:10FF420007F0030E096EE80E086ED8EC7EF006503C
:10FF5200300FDF6E20EE02F00F50D9261050DA2259
:10FF6200030E046EE80E036E0DC001F00EC002F027
:10FF7200A6EC7EF001C006F002C007F0000E096E8A
:10FF8200640E086ED8EC7EF00650300FDF6E20EE65
:10FF920003F00F50D9261050DA22000E046E640EC0
:10FFA200036E0DC001F00EC002F0A6EC7EF001C09F
:10FFB20006F002C007F0000E096E0A0E086ED8ECB9
:10FFC2007EF00650300FDF6E20EE04F00F50D9267F
:10FFD2001050DA220DC001F00EC002F0000E046EC5
:10FFE2000A0E036EA6EC7EF00150300FDF6E20EE9B
:0EFFF20005F00F50D9261050DA22DF6A1200F7
:020000040030CA
:08000000FF08191EFF8181FFBA
:00000001FF
