:040000004DEF7FF051
:10FE9A00000190EF7FF08D8200D08D921200200E2B
:10FEAA00AC6E900EAB6E000EB86E0C0EAF6E1200FA
:10FEBA00016E8D8401C08CFF50EC7FF0210EE82E7C
:10FECA00FED700F01200026E8D9402C08CFF50EC37
:10FEDA007FF0060E016E300EE82EFED7012EFCD7FB
:10FEEA0000D01200300E68EC7FF0300E68EC7FF024
:10FEFA00300E68EC7FF0380E68EC7FF0080E68EC84
:10FF0A007FF0010E68EC7FF0060E68EC7FF00C0EB5
:10FF1A0068EC7FF01200700ED3120F0EC112070E9A
:10FF2A00B4129368E70E946E000E956E000E966EEC
:10FF3A00000E8A6E000E8B6E000E8C6E000E8D6E99
:10FF4A0077EC7FF054EC7FF081B0AEEF7FF0B0EF4A
:10FF5A007FF0F1EF7FF0ACA2B5EF7FF0B7EF7FF063
:10FF6A00B0EF7FF0480EAD6EACA2BEEF7FF0C0EFEF
:10FF7A007FF0B9EF7FF0650EAD6EACA2C7EF7FF0F0
:10FF8A00C9EF7FF0C2EF7FF06C0EAD6EACA2D0EF7E
:10FF9A007FF0D2EF7FF0CBEF7FF06C0EAD6EACA2AC
:10FFAA00D9EF7FF0DBEF7FF0D4EF7FF06F0EAD6E0D
:10FFBA00ACA2E2EF7FF0E4EF7FF0DDEF7FF0200EFE
:10FFCA00AD6E060E046E130E036EAE0EE82EFED74D
:10FFDA00032EFCD7042EFAD79EAAF6EF7FF0F8EF8D
:10FFEA007FF0A9EF7FF09E9AAE505DEC7FF0A9EF0B
:06FFFA007FF000EF00F0B3
:020000040030CA
:08000000FF08191EFF8181FFBA
:00000001FF
