:04000000E7EF7EF0B8
:10FDCE000001B8EF7FF08D8200D08D9212009498D2
:10FDDE00828682881200016E8D8401C08CFFEAEC4F
:10FDEE007EF0210EE82EFED700F012008286828869
:10FDFE00060EE82EFED700D08298060EE82EFED70D
:10FE0E0000D0120082868298060EE82EFED700D011
:10FE1E008288060EE82EFED700D01200026E8D9458
:10FE2E0002C08CFFEAEC7EF0060E016E300EE82E5C
:10FE3E00FED7012EFCD700D01200300E15EC7FF04D
:10FE4E00300E15EC7FF0300E15EC7FF0380E15EC01
:10FE5E007FF0080E15EC7FF0010E15EC7FF0060E0C
:10FE6E0015EC7FF00C0E15EC7FF01200036E8296EF
:10FE7E00000E046E04500708016E03C002F0012A42
:10FE8E004BEF7FF0D8900232012E49EF7FF0010E3A
:10FE9E000216023A82500218EF0B0218826E828608
:10FEAE00060EE82EFED700D08296042A070E0464B2
:10FEBE0063EF7FF065EF7FF041EF7FF08288060EF3
:10FECE00E82EFED700D08286060EE82EFED700D092
:10FEDE0082961200036E000E046E829694888288BB
:10FEEE00000E056E8286060EE82EFED700D0055057
:10FEFE000708016E82B886EF7FF08AEF7FF0026A04
:10FF0E00022A8BEF7FF0026A012A90EF7FF0D890E1
:10FF1E000236012E8EEF7FF0025004128296052AD1
:10FF2E00070E05649DEF7FF09FEF7FF079EF7FF076
:10FF3E0094980350D8B4A6EF7FF0A8EF7FF0ABEF04
:10FF4E007FF08298ACEF7FF08288060EE82EFED707
:10FF5E0000D08286060EE82EFED700D08296045080
:10FF6E001200700ED3120F0EC112070EB412E70E4E
:10FF7E00946E000E956E000E966E000E8B6E000E39
:10FF8E008C6E000E8D6E24EC7FF0EEEC7EF0FDECB0
:10FF9E007EF0A00E3DEC7FF0000E3DEC7FF0410EAA
:10FFAE003DEC7FF009EC7FF01A0E066EF80EE82E8F
:10FFBE00FED7062EFCD700D0FDEC7EF0A00E3DEC59
:10FFCE007FF0000E3DEC7FF0FDEC7EF0A10E3DECDF
:10FFDE007FF0000E71EC7FF0076E09EC7FF0010EE2
:10FFEE0015EC7FF00750F2EC7EF0FCEF7FF000EFA7
:02FFFE0000F011
:020000040030CA
:08000000FF08191EFF8181FFBA
:00000001FF
